{
  "contractName": "DocumentRegistry",
  "abi": [
    {
      "constant": false,
      "inputs": [
        {
          "internalType": "bytes32",
          "name": "hash",
          "type": "bytes32"
        }
      ],
      "name": "storeDocument",
      "outputs": [],
      "payable": false,
      "stateMutability": "nonpayable",
      "type": "function"
    },
    {
      "constant": true,
      "inputs": [
        {
          "internalType": "bytes32",
          "name": "hash",
          "type": "bytes32"
        }
      ],
      "name": "verifyDocument",
      "outputs": [
        {
          "internalType": "bool",
          "name": "",
          "type": "bool"
        }
      ],
      "payable": false,
      "stateMutability": "view",
      "type": "function"
    }
  ],
  "bytecode": "0x608060405234801561001057600080fd5b50610131806100206000396000f3fe6080604052348015600f57600080fd5b506004361060325760003560e01c80639ed946f4146037578063fe35089f146062575b600080fd5b606060048036036020811015604b57600080fd5b810190808035906020019092919050505060a5565b005b608b60048036036020811015607657600080fd5b810190808035906020019092919050505060d3565b604051808215151515815260200191505060405180910390f35b600160008083815260200190815260200160002060006101000a81548160ff02191690831515021790555050565b600080600083815260200190815260200160002060009054906101000a900460ff16905091905056fea265627a7a7231582088b46ac12ef17c66e256b7764894acb73e9d601e45a4c99e8159dc957dbf8aa264736f6c63430005100032",
  "source": "// SPDX-License-Identifier: MIT \r\npragma solidity >=0.5.8;\r\n\r\ncontract DocumentRegistry {\r\n  mapping(bytes32 => bool) private documents;\r\n\r\n  function storeDocument(bytes32 hash) public {\r\n    documents[hash] = true;\r\n  }\r\n\r\n  function verifyDocument(bytes32 hash) public view returns (bool) {\r\n    return documents[hash];\r\n  }\r\n}",
  "sourcePath": "C:\\Users\\shashank sanket\\Desktop\\project\\contracts\\truffleProject\\contracts\\verdoc.sol",
  "compiler": {
    "name": "solc",
    "version": "0.5.16+commit.9c3226ce.Emscripten.clang"
  },
  "schemaVersion": "3.4.14",
  "updatedAt": "2023-07-08T16:12:54.971Z",
  "devdoc": {
    "methods": {}
  },
  "userdoc": {
    "methods": {}
  }
}